{
  "address": "0xB8572aDe9f3a2Fb734460d460222cC2610DB6aE5",
  "abi": [
    {
      "inputs": [
        {
          "internalType": "string",
          "name": "name",
          "type": "string"
        },
        {
          "internalType": "string",
          "name": "symbol",
          "type": "string"
        }
      ],
      "stateMutability": "payable",
      "type": "constructor"
    },
    {
      "anonymous": false,
      "inputs": [
        {
          "indexed": true,
          "internalType": "address",
          "name": "owner",
          "type": "address"
        },
        {
          "indexed": true,
          "internalType": "address",
          "name": "approved",
          "type": "address"
        },
        {
          "indexed": true,
          "internalType": "uint256",
          "name": "tokenId",
          "type": "uint256"
        }
      ],
      "name": "Approval",
      "type": "event"
    },
    {
      "anonymous": false,
      "inputs": [
        {
          "indexed": true,
          "internalType": "address",
          "name": "owner",
          "type": "address"
        },
        {
          "indexed": true,
          "internalType": "address",
          "name": "operator",
          "type": "address"
        },
        {
          "indexed": false,
          "internalType": "bool",
          "name": "approved",
          "type": "bool"
        }
      ],
      "name": "ApprovalForAll",
      "type": "event"
    },
    {
      "anonymous": false,
      "inputs": [
        {
          "indexed": true,
          "internalType": "address",
          "name": "previousOwner",
          "type": "address"
        },
        {
          "indexed": true,
          "internalType": "address",
          "name": "newOwner",
          "type": "address"
        }
      ],
      "name": "OwnershipTransferred",
      "type": "event"
    },
    {
      "anonymous": false,
      "inputs": [
        {
          "indexed": true,
          "internalType": "address",
          "name": "from",
          "type": "address"
        },
        {
          "indexed": true,
          "internalType": "address",
          "name": "to",
          "type": "address"
        },
        {
          "indexed": true,
          "internalType": "uint256",
          "name": "tokenId",
          "type": "uint256"
        }
      ],
      "name": "Transfer",
      "type": "event"
    },
    {
      "inputs": [],
      "name": "ROYALTY_AMOUNT",
      "outputs": [
        {
          "internalType": "uint16",
          "name": "",
          "type": "uint16"
        }
      ],
      "stateMutability": "view",
      "type": "function"
    },
    {
      "inputs": [
        {
          "internalType": "address",
          "name": "to",
          "type": "address"
        },
        {
          "internalType": "uint256",
          "name": "tokenId",
          "type": "uint256"
        }
      ],
      "name": "approve",
      "outputs": [],
      "stateMutability": "nonpayable",
      "type": "function"
    },
    {
      "inputs": [
        {
          "internalType": "string",
          "name": "ipfsHash",
          "type": "string"
        }
      ],
      "name": "artistMint",
      "outputs": [],
      "stateMutability": "nonpayable",
      "type": "function"
    },
    {
      "inputs": [
        {
          "internalType": "address",
          "name": "owner",
          "type": "address"
        }
      ],
      "name": "balanceOf",
      "outputs": [
        {
          "internalType": "uint256",
          "name": "",
          "type": "uint256"
        }
      ],
      "stateMutability": "view",
      "type": "function"
    },
    {
      "inputs": [
        {
          "internalType": "uint256",
          "name": "tokenId",
          "type": "uint256"
        }
      ],
      "name": "getApproved",
      "outputs": [
        {
          "internalType": "address",
          "name": "",
          "type": "address"
        }
      ],
      "stateMutability": "view",
      "type": "function"
    },
    {
      "inputs": [
        {
          "internalType": "address",
          "name": "owner",
          "type": "address"
        },
        {
          "internalType": "address",
          "name": "operator",
          "type": "address"
        }
      ],
      "name": "isApprovedForAll",
      "outputs": [
        {
          "internalType": "bool",
          "name": "",
          "type": "bool"
        }
      ],
      "stateMutability": "view",
      "type": "function"
    },
    {
      "inputs": [],
      "name": "name",
      "outputs": [
        {
          "internalType": "string",
          "name": "",
          "type": "string"
        }
      ],
      "stateMutability": "view",
      "type": "function"
    },
    {
      "inputs": [],
      "name": "owner",
      "outputs": [
        {
          "internalType": "address",
          "name": "",
          "type": "address"
        }
      ],
      "stateMutability": "view",
      "type": "function"
    },
    {
      "inputs": [
        {
          "internalType": "uint256",
          "name": "tokenId",
          "type": "uint256"
        }
      ],
      "name": "ownerOf",
      "outputs": [
        {
          "internalType": "address",
          "name": "",
          "type": "address"
        }
      ],
      "stateMutability": "view",
      "type": "function"
    },
    {
      "inputs": [],
      "name": "renounceOwnership",
      "outputs": [],
      "stateMutability": "nonpayable",
      "type": "function"
    },
    {
      "inputs": [
        {
          "internalType": "uint256",
          "name": "tokenId",
          "type": "uint256"
        },
        {
          "internalType": "uint256",
          "name": "value",
          "type": "uint256"
        },
        {
          "internalType": "bytes",
          "name": "_data",
          "type": "bytes"
        }
      ],
      "name": "royaltyInfo",
      "outputs": [
        {
          "internalType": "address",
          "name": "_receiver",
          "type": "address"
        },
        {
          "internalType": "uint256",
          "name": "_royaltyAmount",
          "type": "uint256"
        }
      ],
      "stateMutability": "view",
      "type": "function"
    },
    {
      "inputs": [
        {
          "internalType": "address",
          "name": "from",
          "type": "address"
        },
        {
          "internalType": "address",
          "name": "to",
          "type": "address"
        },
        {
          "internalType": "uint256",
          "name": "tokenId",
          "type": "uint256"
        }
      ],
      "name": "safeTransferFrom",
      "outputs": [],
      "stateMutability": "nonpayable",
      "type": "function"
    },
    {
      "inputs": [
        {
          "internalType": "address",
          "name": "from",
          "type": "address"
        },
        {
          "internalType": "address",
          "name": "to",
          "type": "address"
        },
        {
          "internalType": "uint256",
          "name": "tokenId",
          "type": "uint256"
        },
        {
          "internalType": "bytes",
          "name": "_data",
          "type": "bytes"
        }
      ],
      "name": "safeTransferFrom",
      "outputs": [],
      "stateMutability": "nonpayable",
      "type": "function"
    },
    {
      "inputs": [
        {
          "internalType": "address",
          "name": "operator",
          "type": "address"
        },
        {
          "internalType": "bool",
          "name": "approved",
          "type": "bool"
        }
      ],
      "name": "setApprovalForAll",
      "outputs": [],
      "stateMutability": "nonpayable",
      "type": "function"
    },
    {
      "inputs": [
        {
          "internalType": "uint256",
          "name": "tokenID",
          "type": "uint256"
        },
        {
          "internalType": "uint16",
          "name": "basisPoints",
          "type": "uint16"
        }
      ],
      "name": "setRoyalty",
      "outputs": [],
      "stateMutability": "nonpayable",
      "type": "function"
    },
    {
      "inputs": [
        {
          "internalType": "bytes4",
          "name": "interfaceId",
          "type": "bytes4"
        }
      ],
      "name": "supportsInterface",
      "outputs": [
        {
          "internalType": "bool",
          "name": "",
          "type": "bool"
        }
      ],
      "stateMutability": "view",
      "type": "function"
    },
    {
      "inputs": [],
      "name": "symbol",
      "outputs": [
        {
          "internalType": "string",
          "name": "",
          "type": "string"
        }
      ],
      "stateMutability": "view",
      "type": "function"
    },
    {
      "inputs": [
        {
          "internalType": "uint256",
          "name": "tokenId",
          "type": "uint256"
        }
      ],
      "name": "tokenURI",
      "outputs": [
        {
          "internalType": "string",
          "name": "",
          "type": "string"
        }
      ],
      "stateMutability": "view",
      "type": "function"
    },
    {
      "inputs": [],
      "name": "totalSupply",
      "outputs": [
        {
          "internalType": "uint256",
          "name": "",
          "type": "uint256"
        }
      ],
      "stateMutability": "pure",
      "type": "function"
    },
    {
      "inputs": [
        {
          "internalType": "address",
          "name": "from",
          "type": "address"
        },
        {
          "internalType": "address",
          "name": "to",
          "type": "address"
        },
        {
          "internalType": "uint256",
          "name": "tokenId",
          "type": "uint256"
        }
      ],
      "name": "transferFrom",
      "outputs": [],
      "stateMutability": "nonpayable",
      "type": "function"
    },
    {
      "inputs": [
        {
          "internalType": "address",
          "name": "newOwner",
          "type": "address"
        }
      ],
      "name": "transferOwnership",
      "outputs": [],
      "stateMutability": "nonpayable",
      "type": "function"
    }
  ],
  "transactionHash": "0x27487283bbe15c12d9800cd13c477dcadae9e1254bf646344bc506d7b95b966c",
  "args": [
    "BLAGAVELI",
    "BLAG"
  ],
  "solcInputHash": "e0c728383aa7b55fae27da1e60bfd44e",
  "bytecode": "0x608060405260405162001d4d38038062001d4d83398101604081905262000026916200028e565b8151829082906200003f9060009060208501906200013d565b508051620000559060019060208401906200013d565b505050620000726200006c6200008c60201b60201c565b62000090565b6200008463c155531d60e01b620000e2565b50506200037f565b3390565b600680546001600160a01b038381166001600160a01b0319831681179093556040519116919082907f8be0079c531659141344cd1fd0a4f28419497f9722a3daafe3b4186f6b6457e090600090a35050565b6001600160e01b03198082161415620001185760405162461bcd60e51b81526004016200010f90620002f5565b60405180910390fd5b6001600160e01b0319166000908152600760205260409020805460ff19166001179055565b8280546200014b906200032c565b90600052602060002090601f0160209004810192826200016f5760008555620001ba565b82601f106200018a57805160ff1916838001178555620001ba565b82800160010185558215620001ba579182015b82811115620001ba5782518255916020019190600101906200019d565b50620001c8929150620001cc565b5090565b5b80821115620001c85760008155600101620001cd565b600082601f830112620001f4578081fd5b81516001600160401b038082111562000211576200021162000369565b6040516020601f8401601f191682018101838111838210171562000239576200023962000369565b604052838252858401810187101562000250578485fd5b8492505b8383101562000273578583018101518284018201529182019162000254565b838311156200028457848185840101525b5095945050505050565b60008060408385031215620002a1578182fd5b82516001600160401b0380821115620002b8578384fd5b620002c686838701620001e3565b93506020850151915080821115620002dc578283fd5b50620002eb85828601620001e3565b9150509250929050565b6020808252601c908201527f4552433136353a20696e76616c696420696e7465726661636520696400000000604082015260600190565b6002810460018216806200034157607f821691505b602082108114156200036357634e487b7160e01b600052602260045260246000fd5b50919050565b634e487b7160e01b600052604160045260246000fd5b6119be806200038f6000396000f3fe608060405234801561001057600080fd5b50600436106101375760003560e01c806370a08231116100b8578063b2c751721161007c578063b2c7517214610261578063b88d4fde14610276578063c155531d14610289578063c87b56dd146102aa578063e985e9c5146102bd578063f2fde38b146102d057610137565b806370a0823114610223578063715018a6146102365780638da5cb5b1461023e57806395d89b4114610246578063a22cb4651461024e57610137565b806318160ddd116100ff57806318160ddd146101c257806323b872dd146101d75780632a0befc2146101ea57806342842e0e146101fd5780636352211e1461021057610137565b806301ffc9a71461013c57806306fdde0314610165578063081812fc1461017a578063095ea7b31461019a57806311e3d8d7146101af575b600080fd5b61014f61014a366004611126565b6102e3565b60405161015c91906113c9565b60405180910390f35b61016d6102f6565b60405161015c91906113d4565b61018d6101883660046111a4565b610388565b60405161015c919061135f565b6101ad6101a83660046110fd565b6103d4565b005b6101ad6101bd3660046111bc565b61046c565b6101ca6104cf565b60405161015c919061185c565b6101ad6101e536600461100f565b6104d5565b6101ad6101f836600461115e565b61050d565b6101ad61020b36600461100f565b61059c565b61018d61021e3660046111a4565b6105b7565b6101ca610231366004610fc3565b6105ec565b6101ad610630565b61018d61067b565b61016d61068a565b6101ad61025c3660046110c3565b610699565b610269610767565b60405161015c919061184d565b6101ad61028436600461104a565b61076c565b61029c6102973660046111e6565b6107ab565b60405161015c9291906113b0565b61016d6102b83660046111a4565b6107fe565b61014f6102cb366004610fdd565b61086d565b6101ad6102de366004610fc3565b61089b565b60006102ee8261090c565b90505b919050565b6060600080546103059061190b565b80601f01602080910402602001604051908101604052809291908181526020018280546103319061190b565b801561037e5780601f106103535761010080835404028352916020019161037e565b820191906000526020600020905b81548152906001019060200180831161036157829003601f168201915b5050505050905090565b60006103938261093d565b6103b85760405162461bcd60e51b81526004016103af906116a2565b60405180910390fd5b506000908152600460205260409020546001600160a01b031690565b60006103df826105b7565b9050806001600160a01b0316836001600160a01b031614156104135760405162461bcd60e51b81526004016103af906117bb565b806001600160a01b031661042561095a565b6001600160a01b031614806104415750610441816102cb61095a565b61045d5760405162461bcd60e51b81526004016103af9061157d565b610467838361095e565b505050565b61047461095a565b6001600160a01b031661048561067b565b6001600160a01b0316146104ab5760405162461bcd60e51b81526004016103af906116ee565b6000918252600a6020526040909120805461ffff191661ffff909216919091179055565b6103e890565b6104e66104e061095a565b826109cc565b6105025760405162461bcd60e51b81526004016103af906117fc565b610467838383610a51565b61051561095a565b6001600160a01b031661052661067b565b6001600160a01b03161461054c5760405162461bcd60e51b81526004016103af906116ee565b6105566008610b7e565b60006105626008610b87565b60008181526009602090815260409091208451929350610586929091850190610ea3565b5061059861059261067b565b82610b8b565b5050565b6104678383836040518060200160405280600081525061076c565b6000818152600260205260408120546001600160a01b0316806102ee5760405162461bcd60e51b81526004016103af90611624565b60006001600160a01b0382166106145760405162461bcd60e51b81526004016103af906115da565b506001600160a01b031660009081526003602052604090205490565b61063861095a565b6001600160a01b031661064961067b565b6001600160a01b03161461066f5760405162461bcd60e51b81526004016103af906116ee565b6106796000610c6a565b565b6006546001600160a01b031690565b6060600180546103059061190b565b6106a161095a565b6001600160a01b0316826001600160a01b031614156106d25760405162461bcd60e51b81526004016103af906114fa565b80600560006106df61095a565b6001600160a01b03908116825260208083019390935260409182016000908120918716808252919093529120805460ff19169215159290921790915561072361095a565b6001600160a01b03167f17307eab39ab6107e8899845ad3d59bd9653f200f220920489ca2b5937696c318360405161075b91906113c9565b60405180910390a35050565b600a81565b61077d61077761095a565b836109cc565b6107995760405162461bcd60e51b81526004016103af906117fc565b6107a584848484610cbc565b50505050565b6000848152600a60208190526040822054829182916107d09161ffff90911690610cef565b905060646107de82886118a9565b6107e89190611889565b91506107f261067b565b92505094509492505050565b60606108098261093d565b6108255760405162461bcd60e51b81526004016103af9061176c565b600061082f610d08565b905080600960008581526020019081526020016000206040516020016108569291906112a7565b604051602081830303815290604052915050919050565b6001600160a01b03918216600090815260056020908152604080832093909416825291909152205460ff1690565b6108a361095a565b6001600160a01b03166108b461067b565b6001600160a01b0316146108da5760405162461bcd60e51b81526004016103af906116ee565b6001600160a01b0381166109005760405162461bcd60e51b81526004016103af90611439565b61090981610c6a565b50565b600061091782610d29565b806102ee5750506001600160e01b03191660009081526007602052604090205460ff1690565b6000908152600260205260409020546001600160a01b0316151590565b3390565b600081815260046020526040902080546001600160a01b0319166001600160a01b0384169081179091558190610993826105b7565b6001600160a01b03167f8c5be1e5ebec7d5bd14f71427d1e84f3dd0314c0f7b2291e5b200ac8c7c3b92560405160405180910390a45050565b60006109d78261093d565b6109f35760405162461bcd60e51b81526004016103af90611531565b60006109fe836105b7565b9050806001600160a01b0316846001600160a01b03161480610a395750836001600160a01b0316610a2e84610388565b6001600160a01b0316145b80610a495750610a49818561086d565b949350505050565b826001600160a01b0316610a64826105b7565b6001600160a01b031614610a8a5760405162461bcd60e51b81526004016103af90611723565b6001600160a01b038216610ab05760405162461bcd60e51b81526004016103af906114b6565b610abb838383610467565b610ac660008261095e565b6001600160a01b0383166000908152600360205260408120805460019290610aef9084906118c8565b90915550506001600160a01b0382166000908152600360205260408120805460019290610b1d908490611871565b909155505060008181526002602052604080822080546001600160a01b0319166001600160a01b0386811691821790925591518493918716917fddf252ad1be2c89b69c2b068fc378daa952ba7f163c4a11628f55a4df523b3ef91a4505050565b80546001019055565b5490565b6001600160a01b038216610bb15760405162461bcd60e51b81526004016103af9061166d565b610bba8161093d565b15610bd75760405162461bcd60e51b81526004016103af9061147f565b610be360008383610467565b6001600160a01b0382166000908152600360205260408120805460019290610c0c908490611871565b909155505060008181526002602052604080822080546001600160a01b0319166001600160a01b03861690811790915590518392907fddf252ad1be2c89b69c2b068fc378daa952ba7f163c4a11628f55a4df523b3ef908290a45050565b600680546001600160a01b038381166001600160a01b0319831681179093556040519116919082907f8be0079c531659141344cd1fd0a4f28419497f9722a3daafe3b4186f6b6457e090600090a35050565b610cc7848484610a51565b610cd384848484610d69565b6107a55760405162461bcd60e51b81526004016103af906113e7565b600081831015610cff5781610d01565b825b9392505050565b604080518082019091526007815266697066733a2f2f60c81b602082015290565b60006001600160e01b031982166380ac58cd60e01b1480610d5a57506001600160e01b03198216635b5e139f60e01b145b806102ee57506102ee82610e84565b6000610d7d846001600160a01b0316610e9d565b15610e7957836001600160a01b031663150b7a02610d9961095a565b8786866040518563ffffffff1660e01b8152600401610dbb9493929190611373565b602060405180830381600087803b158015610dd557600080fd5b505af1925050508015610e05575060408051601f3d908101601f19168201909252610e0291810190611142565b60015b610e5f573d808015610e33576040519150601f19603f3d011682016040523d82523d6000602084013e610e38565b606091505b508051610e575760405162461bcd60e51b81526004016103af906113e7565b805181602001fd5b6001600160e01b031916630a85bd0160e11b149050610a49565b506001949350505050565b6001600160e01b031981166301ffc9a760e01b14919050565b3b151590565b828054610eaf9061190b565b90600052602060002090601f016020900481019282610ed15760008555610f17565b82601f10610eea57805160ff1916838001178555610f17565b82800160010185558215610f17579182015b82811115610f17578251825591602001919060010190610efc565b50610f23929150610f27565b5090565b5b80821115610f235760008155600101610f28565b600067ffffffffffffffff80841115610f5757610f5761195c565b604051601f8501601f191681016020018281118282101715610f7b57610f7b61195c565b604052848152915081838501861015610f9357600080fd5b8484602083013760006020868301015250509392505050565b80356001600160a01b03811681146102f157600080fd5b600060208284031215610fd4578081fd5b610d0182610fac565b60008060408385031215610fef578081fd5b610ff883610fac565b915061100660208401610fac565b90509250929050565b600080600060608486031215611023578081fd5b61102c84610fac565b925061103a60208501610fac565b9150604084013590509250925092565b6000806000806080858703121561105f578081fd5b61106885610fac565b935061107660208601610fac565b925060408501359150606085013567ffffffffffffffff811115611098578182fd5b8501601f810187136110a8578182fd5b6110b787823560208401610f3c565b91505092959194509250565b600080604083850312156110d5578182fd5b6110de83610fac565b9150602083013580151581146110f2578182fd5b809150509250929050565b6000806040838503121561110f578182fd5b61111883610fac565b946020939093013593505050565b600060208284031215611137578081fd5b8135610d0181611972565b600060208284031215611153578081fd5b8151610d0181611972565b60006020828403121561116f578081fd5b813567ffffffffffffffff811115611185578182fd5b8201601f81018413611195578182fd5b610a4984823560208401610f3c565b6000602082840312156111b5578081fd5b5035919050565b600080604083850312156111ce578182fd5b82359150602083013561ffff811681146110f2578182fd5b600080600080606085870312156111fb578384fd5b8435935060208501359250604085013567ffffffffffffffff80821115611220578384fd5b818701915087601f830112611233578384fd5b813581811115611241578485fd5b886020828501011115611252578485fd5b95989497505060200194505050565b600081518084526112798160208601602086016118df565b601f01601f19169290920160200192915050565b6d17b6b2ba30b230ba30973539b7b760911b8152600e0190565b6000835160206112ba82858389016118df565b8454918401918390600281046001808316806112d757607f831692505b8583108114156112f557634e487b7160e01b88526022600452602488fd5b808015611309576001811461131a57611346565b60ff19851688528388019550611346565b6113238b611865565b895b8581101561133e5781548a820152908401908801611325565b505083880195505b50505050506113548161128d565b979650505050505050565b6001600160a01b0391909116815260200190565b6001600160a01b03858116825284166020820152604081018390526080606082018190526000906113a690830184611261565b9695505050505050565b6001600160a01b03929092168252602082015260400190565b901515815260200190565b600060208252610d016020830184611261565b60208082526032908201527f4552433732313a207472616e7366657220746f206e6f6e20455243373231526560408201527131b2b4bb32b91034b6b83632b6b2b73a32b960711b606082015260800190565b60208082526026908201527f4f776e61626c653a206e6577206f776e657220697320746865207a65726f206160408201526564647265737360d01b606082015260800190565b6020808252601c908201527f4552433732313a20746f6b656e20616c7265616479206d696e74656400000000604082015260600190565b60208082526024908201527f4552433732313a207472616e7366657220746f20746865207a65726f206164646040820152637265737360e01b606082015260800190565b60208082526019908201527f4552433732313a20617070726f766520746f2063616c6c657200000000000000604082015260600190565b6020808252602c908201527f4552433732313a206f70657261746f7220717565727920666f72206e6f6e657860408201526b34b9ba32b73a103a37b5b2b760a11b606082015260800190565b60208082526038908201527f4552433732313a20617070726f76652063616c6c6572206973206e6f74206f7760408201527f6e6572206e6f7220617070726f76656420666f7220616c6c0000000000000000606082015260800190565b6020808252602a908201527f4552433732313a2062616c616e636520717565727920666f7220746865207a65604082015269726f206164647265737360b01b606082015260800190565b60208082526029908201527f4552433732313a206f776e657220717565727920666f72206e6f6e657869737460408201526832b73a103a37b5b2b760b91b606082015260800190565b6020808252818101527f4552433732313a206d696e7420746f20746865207a65726f2061646472657373604082015260600190565b6020808252602c908201527f4552433732313a20617070726f76656420717565727920666f72206e6f6e657860408201526b34b9ba32b73a103a37b5b2b760a11b606082015260800190565b6020808252818101527f4f776e61626c653a2063616c6c6572206973206e6f7420746865206f776e6572604082015260600190565b60208082526029908201527f4552433732313a207472616e73666572206f6620746f6b656e2074686174206960408201526839903737ba1037bbb760b91b606082015260800190565b6020808252602f908201527f4552433732314d657461646174613a2055524920717565727920666f72206e6f60408201526e3732bc34b9ba32b73a103a37b5b2b760891b606082015260800190565b60208082526021908201527f4552433732313a20617070726f76616c20746f2063757272656e74206f776e656040820152603960f91b606082015260800190565b60208082526031908201527f4552433732313a207472616e736665722063616c6c6572206973206e6f74206f6040820152701ddb995c881b9bdc88185c1c1c9bdd9959607a1b606082015260800190565b61ffff91909116815260200190565b90815260200190565b60009081526020902090565b6000821982111561188457611884611946565b500190565b6000826118a457634e487b7160e01b81526012600452602481fd5b500490565b60008160001904831182151516156118c3576118c3611946565b500290565b6000828210156118da576118da611946565b500390565b60005b838110156118fa5781810151838201526020016118e2565b838111156107a55750506000910152565b60028104600182168061191f57607f821691505b6020821081141561194057634e487b7160e01b600052602260045260246000fd5b50919050565b634e487b7160e01b600052601160045260246000fd5b634e487b7160e01b600052604160045260246000fd5b6001600160e01b03198116811461090957600080fdfea26469706673582212206f045dd3df078d4b5d636303cbc528943ccd34c974cbb405201ab5721ed03f9664736f6c63430008000033",
  "devdoc": {
    "kind": "dev",
    "methods": {
      "approve(address,uint256)": {
        "details": "See {IERC721-approve}."
      },
      "balanceOf(address)": {
        "details": "See {IERC721-balanceOf}."
      },
      "getApproved(uint256)": {
        "details": "See {IERC721-getApproved}."
      },
      "isApprovedForAll(address,address)": {
        "details": "See {IERC721-isApprovedForAll}."
      },
      "name()": {
        "details": "See {IERC721Metadata-name}."
      },
      "owner()": {
        "details": "Returns the address of the current owner."
      },
      "ownerOf(uint256)": {
        "details": "See {IERC721-ownerOf}."
      },
      "renounceOwnership()": {
        "details": "Leaves the contract without owner. It will not be possible to call `onlyOwner` functions anymore. Can only be called by the current owner. NOTE: Renouncing ownership will leave the contract without an owner, thereby removing any functionality that is only available to the owner."
      },
      "safeTransferFrom(address,address,uint256)": {
        "details": "See {IERC721-safeTransferFrom}."
      },
      "safeTransferFrom(address,address,uint256,bytes)": {
        "details": "See {IERC721-safeTransferFrom}."
      },
      "setApprovalForAll(address,bool)": {
        "details": "See {IERC721-setApprovalForAll}."
      },
      "symbol()": {
        "details": "See {IERC721Metadata-symbol}."
      },
      "tokenURI(uint256)": {
        "details": "See {IERC721Metadata-tokenURI}."
      },
      "transferFrom(address,address,uint256)": {
        "details": "See {IERC721-transferFrom}."
      },
      "transferOwnership(address)": {
        "details": "Transfers ownership of the contract to a new account (`newOwner`). Can only be called by the current owner."
      }
    },
    "version": 1
  },
  "userdoc": {
    "kind": "user",
    "methods": {},
    "version": 1
  },
  "storageLayout": {
    "storage": [
      {
        "astId": 129,
        "contract": "contracts/SmartistContract/SmartistContract.sol:SmartistContract",
        "label": "_name",
        "offset": 0,
        "slot": "0",
        "type": "t_string_storage"
      },
      {
        "astId": 131,
        "contract": "contracts/SmartistContract/SmartistContract.sol:SmartistContract",
        "label": "_symbol",
        "offset": 0,
        "slot": "1",
        "type": "t_string_storage"
      },
      {
        "astId": 135,
        "contract": "contracts/SmartistContract/SmartistContract.sol:SmartistContract",
        "label": "_owners",
        "offset": 0,
        "slot": "2",
        "type": "t_mapping(t_uint256,t_address)"
      },
      {
        "astId": 139,
        "contract": "contracts/SmartistContract/SmartistContract.sol:SmartistContract",
        "label": "_balances",
        "offset": 0,
        "slot": "3",
        "type": "t_mapping(t_address,t_uint256)"
      },
      {
        "astId": 143,
        "contract": "contracts/SmartistContract/SmartistContract.sol:SmartistContract",
        "label": "_tokenApprovals",
        "offset": 0,
        "slot": "4",
        "type": "t_mapping(t_uint256,t_address)"
      },
      {
        "astId": 149,
        "contract": "contracts/SmartistContract/SmartistContract.sol:SmartistContract",
        "label": "_operatorApprovals",
        "offset": 0,
        "slot": "5",
        "type": "t_mapping(t_address,t_mapping(t_address,t_bool))"
      },
      {
        "astId": 7,
        "contract": "contracts/SmartistContract/SmartistContract.sol:SmartistContract",
        "label": "_owner",
        "offset": 0,
        "slot": "6",
        "type": "t_address"
      },
      {
        "astId": 1711,
        "contract": "contracts/SmartistContract/SmartistContract.sol:SmartistContract",
        "label": "_supportedInterfaces",
        "offset": 0,
        "slot": "7",
        "type": "t_mapping(t_bytes4,t_bool)"
      },
      {
        "astId": 1883,
        "contract": "contracts/SmartistContract/SmartistContract.sol:SmartistContract",
        "label": "_tokenIds",
        "offset": 0,
        "slot": "8",
        "type": "t_struct(Counter)1405_storage"
      },
      {
        "astId": 1887,
        "contract": "contracts/SmartistContract/SmartistContract.sol:SmartistContract",
        "label": "metadata",
        "offset": 0,
        "slot": "9",
        "type": "t_mapping(t_uint256,t_string_storage)"
      },
      {
        "astId": 1891,
        "contract": "contracts/SmartistContract/SmartistContract.sol:SmartistContract",
        "label": "royalties",
        "offset": 0,
        "slot": "10",
        "type": "t_mapping(t_uint256,t_uint16)"
      }
    ],
    "types": {
      "t_address": {
        "encoding": "inplace",
        "label": "address",
        "numberOfBytes": "20"
      },
      "t_bool": {
        "encoding": "inplace",
        "label": "bool",
        "numberOfBytes": "1"
      },
      "t_bytes4": {
        "encoding": "inplace",
        "label": "bytes4",
        "numberOfBytes": "4"
      },
      "t_mapping(t_address,t_bool)": {
        "encoding": "mapping",
        "key": "t_address",
        "label": "mapping(address => bool)",
        "numberOfBytes": "32",
        "value": "t_bool"
      },
      "t_mapping(t_address,t_mapping(t_address,t_bool))": {
        "encoding": "mapping",
        "key": "t_address",
        "label": "mapping(address => mapping(address => bool))",
        "numberOfBytes": "32",
        "value": "t_mapping(t_address,t_bool)"
      },
      "t_mapping(t_address,t_uint256)": {
        "encoding": "mapping",
        "key": "t_address",
        "label": "mapping(address => uint256)",
        "numberOfBytes": "32",
        "value": "t_uint256"
      },
      "t_mapping(t_bytes4,t_bool)": {
        "encoding": "mapping",
        "key": "t_bytes4",
        "label": "mapping(bytes4 => bool)",
        "numberOfBytes": "32",
        "value": "t_bool"
      },
      "t_mapping(t_uint256,t_address)": {
        "encoding": "mapping",
        "key": "t_uint256",
        "label": "mapping(uint256 => address)",
        "numberOfBytes": "32",
        "value": "t_address"
      },
      "t_mapping(t_uint256,t_string_storage)": {
        "encoding": "mapping",
        "key": "t_uint256",
        "label": "mapping(uint256 => string)",
        "numberOfBytes": "32",
        "value": "t_string_storage"
      },
      "t_mapping(t_uint256,t_uint16)": {
        "encoding": "mapping",
        "key": "t_uint256",
        "label": "mapping(uint256 => uint16)",
        "numberOfBytes": "32",
        "value": "t_uint16"
      },
      "t_string_storage": {
        "encoding": "bytes",
        "label": "string",
        "numberOfBytes": "32"
      },
      "t_struct(Counter)1405_storage": {
        "encoding": "inplace",
        "label": "struct Counters.Counter",
        "members": [
          {
            "astId": 1404,
            "contract": "contracts/SmartistContract/SmartistContract.sol:SmartistContract",
            "label": "_value",
            "offset": 0,
            "slot": "0",
            "type": "t_uint256"
          }
        ],
        "numberOfBytes": "32"
      },
      "t_uint16": {
        "encoding": "inplace",
        "label": "uint16",
        "numberOfBytes": "2"
      },
      "t_uint256": {
        "encoding": "inplace",
        "label": "uint256",
        "numberOfBytes": "32"
      }
    }
  }
}